{
  "_format": "hh-sol-artifact-1",
  "contractName": "DeDevToken",
  "sourceName": "contracts/DeDevToken.sol",
  "abi": [
    {
      "inputs": [
        {
          "internalType": "address",
          "name": "_aiMintsContract",
          "type": "address"
        }
      ],
      "stateMutability": "nonpayable",
      "type": "constructor"
    },
    {
      "anonymous": false,
      "inputs": [
        {
          "indexed": true,
          "internalType": "address",
          "name": "owner",
          "type": "address"
        },
        {
          "indexed": true,
          "internalType": "address",
          "name": "spender",
          "type": "address"
        },
        {
          "indexed": false,
          "internalType": "uint256",
          "name": "value",
          "type": "uint256"
        }
      ],
      "name": "Approval",
      "type": "event"
    },
    {
      "anonymous": false,
      "inputs": [
        {
          "indexed": true,
          "internalType": "address",
          "name": "previousOwner",
          "type": "address"
        },
        {
          "indexed": true,
          "internalType": "address",
          "name": "newOwner",
          "type": "address"
        }
      ],
      "name": "OwnershipTransferred",
      "type": "event"
    },
    {
      "anonymous": false,
      "inputs": [
        {
          "indexed": true,
          "internalType": "address",
          "name": "from",
          "type": "address"
        },
        {
          "indexed": true,
          "internalType": "address",
          "name": "to",
          "type": "address"
        },
        {
          "indexed": false,
          "internalType": "uint256",
          "name": "value",
          "type": "uint256"
        }
      ],
      "name": "Transfer",
      "type": "event"
    },
    {
      "stateMutability": "payable",
      "type": "fallback"
    },
    {
      "inputs": [
        {
          "internalType": "address",
          "name": "",
          "type": "address"
        }
      ],
      "name": "addressesClaimed",
      "outputs": [
        {
          "internalType": "bool",
          "name": "",
          "type": "bool"
        }
      ],
      "stateMutability": "view",
      "type": "function"
    },
    {
      "inputs": [
        {
          "internalType": "address",
          "name": "owner",
          "type": "address"
        },
        {
          "internalType": "address",
          "name": "spender",
          "type": "address"
        }
      ],
      "name": "allowance",
      "outputs": [
        {
          "internalType": "uint256",
          "name": "",
          "type": "uint256"
        }
      ],
      "stateMutability": "view",
      "type": "function"
    },
    {
      "inputs": [
        {
          "internalType": "address",
          "name": "spender",
          "type": "address"
        },
        {
          "internalType": "uint256",
          "name": "amount",
          "type": "uint256"
        }
      ],
      "name": "approve",
      "outputs": [
        {
          "internalType": "bool",
          "name": "",
          "type": "bool"
        }
      ],
      "stateMutability": "nonpayable",
      "type": "function"
    },
    {
      "inputs": [
        {
          "internalType": "address",
          "name": "account",
          "type": "address"
        }
      ],
      "name": "balanceOf",
      "outputs": [
        {
          "internalType": "uint256",
          "name": "",
          "type": "uint256"
        }
      ],
      "stateMutability": "view",
      "type": "function"
    },
    {
      "inputs": [],
      "name": "claim",
      "outputs": [],
      "stateMutability": "nonpayable",
      "type": "function"
    },
    {
      "inputs": [],
      "name": "decimals",
      "outputs": [
        {
          "internalType": "uint8",
          "name": "",
          "type": "uint8"
        }
      ],
      "stateMutability": "view",
      "type": "function"
    },
    {
      "inputs": [
        {
          "internalType": "address",
          "name": "spender",
          "type": "address"
        },
        {
          "internalType": "uint256",
          "name": "subtractedValue",
          "type": "uint256"
        }
      ],
      "name": "decreaseAllowance",
      "outputs": [
        {
          "internalType": "bool",
          "name": "",
          "type": "bool"
        }
      ],
      "stateMutability": "nonpayable",
      "type": "function"
    },
    {
      "inputs": [
        {
          "internalType": "address",
          "name": "spender",
          "type": "address"
        },
        {
          "internalType": "uint256",
          "name": "addedValue",
          "type": "uint256"
        }
      ],
      "name": "increaseAllowance",
      "outputs": [
        {
          "internalType": "bool",
          "name": "",
          "type": "bool"
        }
      ],
      "stateMutability": "nonpayable",
      "type": "function"
    },
    {
      "inputs": [
        {
          "internalType": "address",
          "name": "_sender",
          "type": "address"
        }
      ],
      "name": "isClaimed",
      "outputs": [
        {
          "internalType": "bool",
          "name": "",
          "type": "bool"
        }
      ],
      "stateMutability": "view",
      "type": "function"
    },
    {
      "inputs": [],
      "name": "maxTotalSupply",
      "outputs": [
        {
          "internalType": "uint256",
          "name": "",
          "type": "uint256"
        }
      ],
      "stateMutability": "view",
      "type": "function"
    },
    {
      "inputs": [
        {
          "internalType": "uint256",
          "name": "amount",
          "type": "uint256"
        }
      ],
      "name": "mint",
      "outputs": [],
      "stateMutability": "payable",
      "type": "function"
    },
    {
      "inputs": [],
      "name": "name",
      "outputs": [
        {
          "internalType": "string",
          "name": "",
          "type": "string"
        }
      ],
      "stateMutability": "view",
      "type": "function"
    },
    {
      "inputs": [],
      "name": "owner",
      "outputs": [
        {
          "internalType": "address",
          "name": "",
          "type": "address"
        }
      ],
      "stateMutability": "view",
      "type": "function"
    },
    {
      "inputs": [],
      "name": "renounceOwnership",
      "outputs": [],
      "stateMutability": "nonpayable",
      "type": "function"
    },
    {
      "inputs": [],
      "name": "symbol",
      "outputs": [
        {
          "internalType": "string",
          "name": "",
          "type": "string"
        }
      ],
      "stateMutability": "view",
      "type": "function"
    },
    {
      "inputs": [],
      "name": "tokenPrice",
      "outputs": [
        {
          "internalType": "uint256",
          "name": "",
          "type": "uint256"
        }
      ],
      "stateMutability": "view",
      "type": "function"
    },
    {
      "inputs": [],
      "name": "tokensPerNFT",
      "outputs": [
        {
          "internalType": "uint256",
          "name": "",
          "type": "uint256"
        }
      ],
      "stateMutability": "view",
      "type": "function"
    },
    {
      "inputs": [],
      "name": "totalSupply",
      "outputs": [
        {
          "internalType": "uint256",
          "name": "",
          "type": "uint256"
        }
      ],
      "stateMutability": "view",
      "type": "function"
    },
    {
      "inputs": [
        {
          "internalType": "address",
          "name": "to",
          "type": "address"
        },
        {
          "internalType": "uint256",
          "name": "amount",
          "type": "uint256"
        }
      ],
      "name": "transfer",
      "outputs": [
        {
          "internalType": "bool",
          "name": "",
          "type": "bool"
        }
      ],
      "stateMutability": "nonpayable",
      "type": "function"
    },
    {
      "inputs": [
        {
          "internalType": "address",
          "name": "from",
          "type": "address"
        },
        {
          "internalType": "address",
          "name": "to",
          "type": "address"
        },
        {
          "internalType": "uint256",
          "name": "amount",
          "type": "uint256"
        }
      ],
      "name": "transferFrom",
      "outputs": [
        {
          "internalType": "bool",
          "name": "",
          "type": "bool"
        }
      ],
      "stateMutability": "nonpayable",
      "type": "function"
    },
    {
      "inputs": [
        {
          "internalType": "address",
          "name": "newOwner",
          "type": "address"
        }
      ],
      "name": "transferOwnership",
      "outputs": [],
      "stateMutability": "nonpayable",
      "type": "function"
    },
    {
      "inputs": [],
      "name": "withdraw",
      "outputs": [],
      "stateMutability": "nonpayable",
      "type": "function"
    },
    {
      "stateMutability": "payable",
      "type": "receive"
    }
  ],
  "bytecode": "0x60806040523480156200001157600080fd5b506040516200265c3803806200265c8339818101604052810190620000379190620002d4565b6040518060400160405280600b81526020017f446544657620546f6b656e0000000000000000000000000000000000000000008152506040518060400160405280600281526020017f44440000000000000000000000000000000000000000000000000000000000008152508160039080519060200190620000bb9291906200020d565b508060049080519060200190620000d49291906200020d565b505050620000f7620000eb6200013f60201b60201c565b6200014760201b60201c565b80600660006101000a81548173ffffffffffffffffffffffffffffffffffffffff021916908373ffffffffffffffffffffffffffffffffffffffff16021790555050620003b3565b600033905090565b6000600560009054906101000a900473ffffffffffffffffffffffffffffffffffffffff16905081600560006101000a81548173ffffffffffffffffffffffffffffffffffffffff021916908373ffffffffffffffffffffffffffffffffffffffff1602179055508173ffffffffffffffffffffffffffffffffffffffff168173ffffffffffffffffffffffffffffffffffffffff167f8be0079c531659141344cd1fd0a4f28419497f9722a3daafe3b4186f6b6457e060405160405180910390a35050565b8280546200021b9062000334565b90600052602060002090601f0160209004810192826200023f57600085556200028b565b82601f106200025a57805160ff19168380011785556200028b565b828001600101855582156200028b579182015b828111156200028a5782518255916020019190600101906200026d565b5b5090506200029a91906200029e565b5090565b5b80821115620002b95760008160009055506001016200029f565b5090565b600081519050620002ce8162000399565b92915050565b600060208284031215620002e757600080fd5b6000620002f784828501620002bd565b91505092915050565b60006200030d8262000314565b9050919050565b600073ffffffffffffffffffffffffffffffffffffffff82169050919050565b600060028204905060018216806200034d57607f821691505b602082108114156200036457620003636200036a565b5b50919050565b7f4e487b7100000000000000000000000000000000000000000000000000000000600052602260045260246000fd5b620003a48162000300565b8114620003b057600080fd5b50565b61229980620003c36000396000f3fe6080604052600436106101395760003560e01c8063715018a6116100ab57806395e7387c1161006f57806395e7387c14610410578063a0712d681461044d578063a457c2d714610469578063a9059cbb146104a6578063dd62ed3e146104e3578063f2fde38b1461052057610140565b8063715018a61461033b5780637ff9b596146103525780638cc080251461037d5780638da5cb5b146103ba57806395d89b41146103e557610140565b8063313ce567116100fd578063313ce5671461023d57806339509351146102685780633ccfd60b146102a55780634e71d92d146102bc5780635afcc2f5146102d357806370a08231146102fe57610140565b806306fdde0314610142578063095ea7b31461016d57806318160ddd146101aa57806323b872dd146101d55780632ab4d0521461021257610140565b3661014057005b005b34801561014e57600080fd5b50610157610549565b60405161016491906119ce565b60405180910390f35b34801561017957600080fd5b50610194600480360381019061018f919061162d565b6105db565b6040516101a191906119b3565b60405180910390f35b3480156101b657600080fd5b506101bf6105fe565b6040516101cc9190611bf0565b60405180910390f35b3480156101e157600080fd5b506101fc60048036038101906101f791906115de565b610608565b60405161020991906119b3565b60405180910390f35b34801561021e57600080fd5b50610227610637565b6040516102349190611bf0565b60405180910390f35b34801561024957600080fd5b50610252610645565b60405161025f9190611c0b565b60405180910390f35b34801561027457600080fd5b5061028f600480360381019061028a919061162d565b61064e565b60405161029c91906119b3565b60405180910390f35b3480156102b157600080fd5b506102ba610685565b005b3480156102c857600080fd5b506102d1610792565b005b3480156102df57600080fd5b506102e861098f565b6040516102f59190611bf0565b60405180910390f35b34801561030a57600080fd5b5061032560048036038101906103209190611579565b61099b565b6040516103329190611bf0565b60405180910390f35b34801561034757600080fd5b506103506109e3565b005b34801561035e57600080fd5b506103676109f7565b6040516103749190611bf0565b60405180910390f35b34801561038957600080fd5b506103a4600480360381019061039f9190611579565b610a02565b6040516103b191906119b3565b60405180910390f35b3480156103c657600080fd5b506103cf610a5d565b6040516103dc9190611998565b60405180910390f35b3480156103f157600080fd5b506103fa610a87565b60405161040791906119ce565b60405180910390f35b34801561041c57600080fd5b5061043760048036038101906104329190611579565b610b19565b60405161044491906119b3565b60405180910390f35b61046760048036038101906104629190611669565b610b39565b005b34801561047557600080fd5b50610490600480360381019061048b919061162d565b610c19565b60405161049d91906119b3565b60405180910390f35b3480156104b257600080fd5b506104cd60048036038101906104c8919061162d565b610c90565b6040516104da91906119b3565b60405180910390f35b3480156104ef57600080fd5b5061050a600480360381019061050591906115a2565b610cb3565b6040516105179190611bf0565b60405180910390f35b34801561052c57600080fd5b5061054760048036038101906105429190611579565b610d3a565b005b60606003805461055890611d85565b80601f016020809104026020016040519081016040528092919081815260200182805461058490611d85565b80156105d15780601f106105a6576101008083540402835291602001916105d1565b820191906000526020600020905b8154815290600101906020018083116105b457829003601f168201915b5050505050905090565b6000806105e6610dbe565b90506105f3818585610dc6565b600191505092915050565b6000600254905090565b600080610613610dbe565b9050610620858285610f91565b61062b85858561101d565b60019150509392505050565b69021e19e0c9bab240000081565b60006012905090565b600080610659610dbe565b905061067a81858561066b8589610cb3565b6106759190611c4d565b610dc6565b600191505092915050565b61068d611295565b6000479050600081116106d5576040517f08c379a00000000000000000000000000000000000000000000000000000000081526004016106cc90611b30565b60405180910390fd5b60006106df610a5d565b905060008173ffffffffffffffffffffffffffffffffffffffff168360405161070790611983565b60006040518083038185875af1925050503d8060008114610744576040519150601f19603f3d011682016040523d82523d6000602084013e610749565b606091505b505090508061078d576040517f08c379a000000000000000000000000000000000000000000000000000000000815260040161078490611af0565b60405180910390fd5b505050565b60003390506000600660009054906101000a900473ffffffffffffffffffffffffffffffffffffffff1673ffffffffffffffffffffffffffffffffffffffff166370a08231836040518263ffffffff1660e01b81526004016107f49190611998565b60206040518083038186803b15801561080c57600080fd5b505afa158015610820573d6000803e3d6000fd5b505050506040513d601f19601f820116820180604052508101906108449190611692565b905060008111610889576040517f08c379a000000000000000000000000000000000000000000000000000000000815260040161088090611a10565b60405180910390fd5b600760008373ffffffffffffffffffffffffffffffffffffffff1673ffffffffffffffffffffffffffffffffffffffff16815260200190815260200160002060009054906101000a900460ff1615610916576040517f08c379a000000000000000000000000000000000000000000000000000000000815260040161090d90611b50565b60405180910390fd5b61093333678ac7230489e800008361092e9190611ca3565b611313565b6001600760008473ffffffffffffffffffffffffffffffffffffffff1673ffffffffffffffffffffffffffffffffffffffff16815260200190815260200160002060006101000a81548160ff0219169083151502179055505050565b678ac7230489e8000081565b60008060008373ffffffffffffffffffffffffffffffffffffffff1673ffffffffffffffffffffffffffffffffffffffff168152602001908152602001600020549050919050565b6109eb611295565b6109f5600061146a565b565b66038d7ea4c6800081565b600080600760008473ffffffffffffffffffffffffffffffffffffffff1673ffffffffffffffffffffffffffffffffffffffff16815260200190815260200160002060009054906101000a900460ff16905080915050919050565b6000600560009054906101000a900473ffffffffffffffffffffffffffffffffffffffff16905090565b606060048054610a9690611d85565b80601f0160208091040260200160405190810160405280929190818152602001828054610ac290611d85565b8015610b0f5780601f10610ae457610100808354040283529160200191610b0f565b820191906000526020600020905b815481529060010190602001808311610af257829003601f168201915b5050505050905090565b60076020528060005260406000206000915054906101000a900460ff1681565b60008166038d7ea4c68000610b4e9190611ca3565b905080341015610b93576040517f08c379a0000000000000000000000000000000000000000000000000000000008152600401610b8a90611a50565b60405180910390fd5b6000670de0b6b3a764000083610ba99190611ca3565b905069021e19e0c9bab240000081610bbf6105fe565b610bc99190611c4d565b1115610c0a576040517f08c379a0000000000000000000000000000000000000000000000000000000008152600401610c01906119f0565b60405180910390fd5b610c143382611313565b505050565b600080610c24610dbe565b90506000610c328286610cb3565b905083811015610c77576040517f08c379a0000000000000000000000000000000000000000000000000000000008152600401610c6e90611bb0565b60405180910390fd5b610c848286868403610dc6565b60019250505092915050565b600080610c9b610dbe565b9050610ca881858561101d565b600191505092915050565b6000600160008473ffffffffffffffffffffffffffffffffffffffff1673ffffffffffffffffffffffffffffffffffffffff16815260200190815260200160002060008373ffffffffffffffffffffffffffffffffffffffff1673ffffffffffffffffffffffffffffffffffffffff16815260200190815260200160002054905092915050565b610d42611295565b600073ffffffffffffffffffffffffffffffffffffffff168173ffffffffffffffffffffffffffffffffffffffff161415610db2576040517f08c379a0000000000000000000000000000000000000000000000000000000008152600401610da990611a70565b60405180910390fd5b610dbb8161146a565b50565b600033905090565b600073ffffffffffffffffffffffffffffffffffffffff168373ffffffffffffffffffffffffffffffffffffffff161415610e36576040517f08c379a0000000000000000000000000000000000000000000000000000000008152600401610e2d90611b90565b60405180910390fd5b600073ffffffffffffffffffffffffffffffffffffffff168273ffffffffffffffffffffffffffffffffffffffff161415610ea6576040517f08c379a0000000000000000000000000000000000000000000000000000000008152600401610e9d90611a90565b60405180910390fd5b80600160008573ffffffffffffffffffffffffffffffffffffffff1673ffffffffffffffffffffffffffffffffffffffff16815260200190815260200160002060008473ffffffffffffffffffffffffffffffffffffffff1673ffffffffffffffffffffffffffffffffffffffff168152602001908152602001600020819055508173ffffffffffffffffffffffffffffffffffffffff168373ffffffffffffffffffffffffffffffffffffffff167f8c5be1e5ebec7d5bd14f71427d1e84f3dd0314c0f7b2291e5b200ac8c7c3b92583604051610f849190611bf0565b60405180910390a3505050565b6000610f9d8484610cb3565b90507fffffffffffffffffffffffffffffffffffffffffffffffffffffffffffffffff81146110175781811015611009576040517f08c379a000000000000000000000000000000000000000000000000000000000815260040161100090611ab0565b60405180910390fd5b6110168484848403610dc6565b5b50505050565b600073ffffffffffffffffffffffffffffffffffffffff168373ffffffffffffffffffffffffffffffffffffffff16141561108d576040517f08c379a000000000000000000000000000000000000000000000000000000000815260040161108490611b70565b60405180910390fd5b600073ffffffffffffffffffffffffffffffffffffffff168273ffffffffffffffffffffffffffffffffffffffff1614156110fd576040517f08c379a00000000000000000000000000000000000000000000000000000000081526004016110f490611a30565b60405180910390fd5b611108838383611530565b60008060008573ffffffffffffffffffffffffffffffffffffffff1673ffffffffffffffffffffffffffffffffffffffff1681526020019081526020016000205490508181101561118e576040517f08c379a000000000000000000000000000000000000000000000000000000000815260040161118590611ad0565b60405180910390fd5b8181036000808673ffffffffffffffffffffffffffffffffffffffff1673ffffffffffffffffffffffffffffffffffffffff16815260200190815260200160002081905550816000808573ffffffffffffffffffffffffffffffffffffffff1673ffffffffffffffffffffffffffffffffffffffff168152602001908152602001600020600082825401925050819055508273ffffffffffffffffffffffffffffffffffffffff168473ffffffffffffffffffffffffffffffffffffffff167fddf252ad1be2c89b69c2b068fc378daa952ba7f163c4a11628f55a4df523b3ef8460405161127c9190611bf0565b60405180910390a361128f848484611535565b50505050565b61129d610dbe565b73ffffffffffffffffffffffffffffffffffffffff166112bb610a5d565b73ffffffffffffffffffffffffffffffffffffffff1614611311576040517f08c379a000000000000000000000000000000000000000000000000000000000815260040161130890611b10565b60405180910390fd5b565b600073ffffffffffffffffffffffffffffffffffffffff168273ffffffffffffffffffffffffffffffffffffffff161415611383576040517f08c379a000000000000000000000000000000000000000000000000000000000815260040161137a90611bd0565b60405180910390fd5b61138f60008383611530565b80600260008282546113a19190611c4d565b92505081905550806000808473ffffffffffffffffffffffffffffffffffffffff1673ffffffffffffffffffffffffffffffffffffffff168152602001908152602001600020600082825401925050819055508173ffffffffffffffffffffffffffffffffffffffff16600073ffffffffffffffffffffffffffffffffffffffff167fddf252ad1be2c89b69c2b068fc378daa952ba7f163c4a11628f55a4df523b3ef836040516114529190611bf0565b60405180910390a361146660008383611535565b5050565b6000600560009054906101000a900473ffffffffffffffffffffffffffffffffffffffff16905081600560006101000a81548173ffffffffffffffffffffffffffffffffffffffff021916908373ffffffffffffffffffffffffffffffffffffffff1602179055508173ffffffffffffffffffffffffffffffffffffffff168173ffffffffffffffffffffffffffffffffffffffff167f8be0079c531659141344cd1fd0a4f28419497f9722a3daafe3b4186f6b6457e060405160405180910390a35050565b505050565b505050565b60008135905061154981612235565b92915050565b60008135905061155e8161224c565b92915050565b6000815190506115738161224c565b92915050565b60006020828403121561158b57600080fd5b60006115998482850161153a565b91505092915050565b600080604083850312156115b557600080fd5b60006115c38582860161153a565b92505060206115d48582860161153a565b9150509250929050565b6000806000606084860312156115f357600080fd5b60006116018682870161153a565b93505060206116128682870161153a565b92505060406116238682870161154f565b9150509250925092565b6000806040838503121561164057600080fd5b600061164e8582860161153a565b925050602061165f8582860161154f565b9150509250929050565b60006020828403121561167b57600080fd5b60006116898482850161154f565b91505092915050565b6000602082840312156116a457600080fd5b60006116b284828501611564565b91505092915050565b6116c481611cfd565b82525050565b6116d381611d0f565b82525050565b60006116e482611c26565b6116ee8185611c3c565b93506116fe818560208601611d52565b61170781611e15565b840191505092915050565b600061171f602683611c3c565b915061172a82611e26565b604082019050919050565b6000611742601e83611c3c565b915061174d82611e75565b602082019050919050565b6000611765602383611c3c565b915061177082611e9e565b604082019050919050565b6000611788601783611c3c565b915061179382611eed565b602082019050919050565b60006117ab602683611c3c565b91506117b682611f16565b604082019050919050565b60006117ce602283611c3c565b91506117d982611f65565b604082019050919050565b60006117f1601d83611c3c565b91506117fc82611fb4565b602082019050919050565b6000611814602683611c3c565b915061181f82611fdd565b604082019050919050565b6000611837601483611c3c565b91506118428261202c565b602082019050919050565b600061185a602083611c3c565b915061186582612055565b602082019050919050565b600061187d602b83611c3c565b91506118888261207e565b604082019050919050565b60006118a0602483611c3c565b91506118ab826120cd565b604082019050919050565b60006118c3602583611c3c565b91506118ce8261211c565b604082019050919050565b60006118e6600083611c31565b91506118f18261216b565b600082019050919050565b6000611909602483611c3c565b91506119148261216e565b604082019050919050565b600061192c602583611c3c565b9150611937826121bd565b604082019050919050565b600061194f601f83611c3c565b915061195a8261220c565b602082019050919050565b61196e81611d3b565b82525050565b61197d81611d45565b82525050565b600061198e826118d9565b9150819050919050565b60006020820190506119ad60008301846116bb565b92915050565b60006020820190506119c860008301846116ca565b92915050565b600060208201905081810360008301526119e881846116d9565b905092915050565b60006020820190508181036000830152611a0981611712565b9050919050565b60006020820190508181036000830152611a2981611735565b9050919050565b60006020820190508181036000830152611a4981611758565b9050919050565b60006020820190508181036000830152611a698161177b565b9050919050565b60006020820190508181036000830152611a898161179e565b9050919050565b60006020820190508181036000830152611aa9816117c1565b9050919050565b60006020820190508181036000830152611ac9816117e4565b9050919050565b60006020820190508181036000830152611ae981611807565b9050919050565b60006020820190508181036000830152611b098161182a565b9050919050565b60006020820190508181036000830152611b298161184d565b9050919050565b60006020820190508181036000830152611b4981611870565b9050919050565b60006020820190508181036000830152611b6981611893565b9050919050565b60006020820190508181036000830152611b89816118b6565b9050919050565b60006020820190508181036000830152611ba9816118fc565b9050919050565b60006020820190508181036000830152611bc98161191f565b9050919050565b60006020820190508181036000830152611be981611942565b9050919050565b6000602082019050611c056000830184611965565b92915050565b6000602082019050611c206000830184611974565b92915050565b600081519050919050565b600081905092915050565b600082825260208201905092915050565b6000611c5882611d3b565b9150611c6383611d3b565b9250827fffffffffffffffffffffffffffffffffffffffffffffffffffffffffffffffff03821115611c9857611c97611db7565b5b828201905092915050565b6000611cae82611d3b565b9150611cb983611d3b565b9250817fffffffffffffffffffffffffffffffffffffffffffffffffffffffffffffffff0483118215151615611cf257611cf1611db7565b5b828202905092915050565b6000611d0882611d1b565b9050919050565b60008115159050919050565b600073ffffffffffffffffffffffffffffffffffffffff82169050919050565b6000819050919050565b600060ff82169050919050565b60005b83811015611d70578082015181840152602081019050611d55565b83811115611d7f576000848401525b50505050565b60006002820490506001821680611d9d57607f821691505b60208210811415611db157611db0611de6565b5b50919050565b7f4e487b7100000000000000000000000000000000000000000000000000000000600052601160045260246000fd5b7f4e487b7100000000000000000000000000000000000000000000000000000000600052602260045260246000fd5b6000601f19601f8301169050919050565b7f4578636565647320746865206d617820746f74616c20737570706c792061766160008201527f696c61626c650000000000000000000000000000000000000000000000000000602082015250565b7f596f7520646f6e2774206f776e20616e79204169204d696e7473204e46540000600082015250565b7f45524332303a207472616e7366657220746f20746865207a65726f206164647260008201527f6573730000000000000000000000000000000000000000000000000000000000602082015250565b7f45746865722073656e7420697320696e636f7272656374000000000000000000600082015250565b7f4f776e61626c653a206e6577206f776e657220697320746865207a65726f206160008201527f6464726573730000000000000000000000000000000000000000000000000000602082015250565b7f45524332303a20617070726f766520746f20746865207a65726f20616464726560008201527f7373000000000000000000000000000000000000000000000000000000000000602082015250565b7f45524332303a20696e73756666696369656e7420616c6c6f77616e6365000000600082015250565b7f45524332303a207472616e7366657220616d6f756e742065786365656473206260008201527f616c616e63650000000000000000000000000000000000000000000000000000602082015250565b7f4661696c656420746f2073656e64204574686572000000000000000000000000600082015250565b7f4f776e61626c653a2063616c6c6572206973206e6f7420746865206f776e6572600082015250565b7f4e6f7468696e6720746f2077697468647261772c20636f6e747261637420626160008201527f6c616e636520656d707479000000000000000000000000000000000000000000602082015250565b7f596f75206861766520616c726561647920636c61696d656420796f757220746f60008201527f6b656e7300000000000000000000000000000000000000000000000000000000602082015250565b7f45524332303a207472616e736665722066726f6d20746865207a65726f20616460008201527f6472657373000000000000000000000000000000000000000000000000000000602082015250565b50565b7f45524332303a20617070726f76652066726f6d20746865207a65726f2061646460008201527f7265737300000000000000000000000000000000000000000000000000000000602082015250565b7f45524332303a2064656372656173656420616c6c6f77616e63652062656c6f7760008201527f207a65726f000000000000000000000000000000000000000000000000000000602082015250565b7f45524332303a206d696e7420746f20746865207a65726f206164647265737300600082015250565b61223e81611cfd565b811461224957600080fd5b50565b61225581611d3b565b811461226057600080fd5b5056fea2646970667358221220adab6590cd68864f7d0f90659860a5067b60886da892034897f67daf90d3323664736f6c63430008040033",
  "linkReferences": {},
  "deployedLinkReferences": {}
}