{
  "_format": "hh-sol-artifact-1",
  "contractName": "Exchange",
  "sourceName": "contracts/Exchange.sol",
  "abi": [
    {
      "inputs": [
        {
          "internalType": "address",
          "name": "_DeDevToken",
          "type": "address"
        }
      ],
      "stateMutability": "nonpayable",
      "type": "constructor"
    },
    {
      "anonymous": false,
      "inputs": [
        {
          "indexed": true,
          "internalType": "address",
          "name": "owner",
          "type": "address"
        },
        {
          "indexed": true,
          "internalType": "address",
          "name": "spender",
          "type": "address"
        },
        {
          "indexed": false,
          "internalType": "uint256",
          "name": "value",
          "type": "uint256"
        }
      ],
      "name": "Approval",
      "type": "event"
    },
    {
      "anonymous": false,
      "inputs": [
        {
          "indexed": true,
          "internalType": "address",
          "name": "from",
          "type": "address"
        },
        {
          "indexed": true,
          "internalType": "address",
          "name": "to",
          "type": "address"
        },
        {
          "indexed": false,
          "internalType": "uint256",
          "name": "value",
          "type": "uint256"
        }
      ],
      "name": "Transfer",
      "type": "event"
    },
    {
      "inputs": [
        {
          "internalType": "uint256",
          "name": "_amount",
          "type": "uint256"
        }
      ],
      "name": "addLiquidity",
      "outputs": [
        {
          "internalType": "uint256",
          "name": "",
          "type": "uint256"
        }
      ],
      "stateMutability": "payable",
      "type": "function"
    },
    {
      "inputs": [
        {
          "internalType": "address",
          "name": "owner",
          "type": "address"
        },
        {
          "internalType": "address",
          "name": "spender",
          "type": "address"
        }
      ],
      "name": "allowance",
      "outputs": [
        {
          "internalType": "uint256",
          "name": "",
          "type": "uint256"
        }
      ],
      "stateMutability": "view",
      "type": "function"
    },
    {
      "inputs": [
        {
          "internalType": "address",
          "name": "spender",
          "type": "address"
        },
        {
          "internalType": "uint256",
          "name": "amount",
          "type": "uint256"
        }
      ],
      "name": "approve",
      "outputs": [
        {
          "internalType": "bool",
          "name": "",
          "type": "bool"
        }
      ],
      "stateMutability": "nonpayable",
      "type": "function"
    },
    {
      "inputs": [
        {
          "internalType": "address",
          "name": "account",
          "type": "address"
        }
      ],
      "name": "balanceOf",
      "outputs": [
        {
          "internalType": "uint256",
          "name": "",
          "type": "uint256"
        }
      ],
      "stateMutability": "view",
      "type": "function"
    },
    {
      "inputs": [],
      "name": "deDevTokenAddress",
      "outputs": [
        {
          "internalType": "address",
          "name": "",
          "type": "address"
        }
      ],
      "stateMutability": "view",
      "type": "function"
    },
    {
      "inputs": [
        {
          "internalType": "uint256",
          "name": "_tokensSold",
          "type": "uint256"
        },
        {
          "internalType": "uint256",
          "name": "_minEth",
          "type": "uint256"
        }
      ],
      "name": "deDevTokenToEth",
      "outputs": [],
      "stateMutability": "nonpayable",
      "type": "function"
    },
    {
      "inputs": [],
      "name": "decimals",
      "outputs": [
        {
          "internalType": "uint8",
          "name": "",
          "type": "uint8"
        }
      ],
      "stateMutability": "view",
      "type": "function"
    },
    {
      "inputs": [
        {
          "internalType": "address",
          "name": "spender",
          "type": "address"
        },
        {
          "internalType": "uint256",
          "name": "subtractedValue",
          "type": "uint256"
        }
      ],
      "name": "decreaseAllowance",
      "outputs": [
        {
          "internalType": "bool",
          "name": "",
          "type": "bool"
        }
      ],
      "stateMutability": "nonpayable",
      "type": "function"
    },
    {
      "inputs": [
        {
          "internalType": "uint256",
          "name": "_minTokens",
          "type": "uint256"
        }
      ],
      "name": "ethToDeDevToken",
      "outputs": [],
      "stateMutability": "payable",
      "type": "function"
    },
    {
      "inputs": [
        {
          "internalType": "uint256",
          "name": "inputAmount",
          "type": "uint256"
        },
        {
          "internalType": "uint256",
          "name": "inputReserve",
          "type": "uint256"
        },
        {
          "internalType": "uint256",
          "name": "outputReserve",
          "type": "uint256"
        }
      ],
      "name": "getAmountOfTokens",
      "outputs": [
        {
          "internalType": "uint256",
          "name": "",
          "type": "uint256"
        }
      ],
      "stateMutability": "pure",
      "type": "function"
    },
    {
      "inputs": [],
      "name": "getReserve",
      "outputs": [
        {
          "internalType": "uint256",
          "name": "",
          "type": "uint256"
        }
      ],
      "stateMutability": "view",
      "type": "function"
    },
    {
      "inputs": [
        {
          "internalType": "address",
          "name": "spender",
          "type": "address"
        },
        {
          "internalType": "uint256",
          "name": "addedValue",
          "type": "uint256"
        }
      ],
      "name": "increaseAllowance",
      "outputs": [
        {
          "internalType": "bool",
          "name": "",
          "type": "bool"
        }
      ],
      "stateMutability": "nonpayable",
      "type": "function"
    },
    {
      "inputs": [],
      "name": "name",
      "outputs": [
        {
          "internalType": "string",
          "name": "",
          "type": "string"
        }
      ],
      "stateMutability": "view",
      "type": "function"
    },
    {
      "inputs": [
        {
          "internalType": "uint256",
          "name": "_amount",
          "type": "uint256"
        }
      ],
      "name": "removeLiquidity",
      "outputs": [
        {
          "internalType": "uint256",
          "name": "",
          "type": "uint256"
        },
        {
          "internalType": "uint256",
          "name": "",
          "type": "uint256"
        }
      ],
      "stateMutability": "nonpayable",
      "type": "function"
    },
    {
      "inputs": [],
      "name": "symbol",
      "outputs": [
        {
          "internalType": "string",
          "name": "",
          "type": "string"
        }
      ],
      "stateMutability": "view",
      "type": "function"
    },
    {
      "inputs": [],
      "name": "totalSupply",
      "outputs": [
        {
          "internalType": "uint256",
          "name": "",
          "type": "uint256"
        }
      ],
      "stateMutability": "view",
      "type": "function"
    },
    {
      "inputs": [
        {
          "internalType": "address",
          "name": "to",
          "type": "address"
        },
        {
          "internalType": "uint256",
          "name": "amount",
          "type": "uint256"
        }
      ],
      "name": "transfer",
      "outputs": [
        {
          "internalType": "bool",
          "name": "",
          "type": "bool"
        }
      ],
      "stateMutability": "nonpayable",
      "type": "function"
    },
    {
      "inputs": [
        {
          "internalType": "address",
          "name": "from",
          "type": "address"
        },
        {
          "internalType": "address",
          "name": "to",
          "type": "address"
        },
        {
          "internalType": "uint256",
          "name": "amount",
          "type": "uint256"
        }
      ],
      "name": "transferFrom",
      "outputs": [
        {
          "internalType": "bool",
          "name": "",
          "type": "bool"
        }
      ],
      "stateMutability": "nonpayable",
      "type": "function"
    }
  ],
  "bytecode": "0x60806040523480156200001157600080fd5b50604051620029c2380380620029c2833981810160405281019062000037919062000259565b6040518060400160405280600f81526020017f446520446576204c5020546f6b656e00000000000000000000000000000000008152506040518060400160405280600481526020017f44444c50000000000000000000000000000000000000000000000000000000008152508160039080519060200190620000bb92919062000192565b508060049080519060200190620000d492919062000192565b505050600073ffffffffffffffffffffffffffffffffffffffff168173ffffffffffffffffffffffffffffffffffffffff1614156200014a576040517f08c379a00000000000000000000000000000000000000000000000000000000081526004016200014190620002ac565b60405180910390fd5b80600560006101000a81548173ffffffffffffffffffffffffffffffffffffffff021916908373ffffffffffffffffffffffffffffffffffffffff16021790555050620003e1565b828054620001a09062000313565b90600052602060002090601f016020900481019282620001c4576000855562000210565b82601f10620001df57805160ff191683800117855562000210565b8280016001018555821562000210579182015b828111156200020f578251825591602001919060010190620001f2565b5b5090506200021f919062000223565b5090565b5b808211156200023e57600081600090555060010162000224565b5090565b6000815190506200025381620003c7565b92915050565b6000602082840312156200026c57600080fd5b60006200027c8482850162000242565b91505092915050565b600062000294602683620002ce565b9150620002a18262000378565b604082019050919050565b60006020820190508181036000830152620002c78162000285565b9050919050565b600082825260208201905092915050565b6000620002ec82620002f3565b9050919050565b600073ffffffffffffffffffffffffffffffffffffffff82169050919050565b600060028204905060018216806200032c57607f821691505b6020821081141562000343576200034262000349565b5b50919050565b7f4e487b7100000000000000000000000000000000000000000000000000000000600052602260045260246000fd5b7f546f6b656e2061646472657373207061737365642069732061206e756c6c206160008201527f6464726573730000000000000000000000000000000000000000000000000000602082015250565b620003d281620002df565b8114620003de57600080fd5b50565b6125d180620003f16000396000f3fe6080604052600436106101095760003560e01c806370a08231116100955780639c8f9f23116100645780639c8f9f231461038d578063a457c2d7146103cb578063a9059cbb14610408578063dd62ed3e14610445578063f8a7b7691461048257610109565b806370a08231146102bd5780637386479e146102fa57806395d89b411461033757806397bb3e801461036257610109565b806323b872dd116100dc57806323b872dd146101bd578063313ce567146101fa578063395093511461022557806351c6590a1461026257806359bf5d391461029257610109565b8063014e3ccc1461010e57806306fdde031461012a578063095ea7b31461015557806318160ddd14610192575b600080fd5b61012860048036038101906101239190611900565b6104ab565b005b34801561013657600080fd5b5061013f6105c9565b60405161014c9190611cd2565b60405180910390f35b34801561016157600080fd5b5061017c6004803603810190610177919061189b565b61065b565b6040516101899190611cb7565b60405180910390f35b34801561019e57600080fd5b506101a761067e565b6040516101b49190611eb4565b60405180910390f35b3480156101c957600080fd5b506101e460048036038101906101df919061184c565b610688565b6040516101f19190611cb7565b60405180910390f35b34801561020657600080fd5b5061020f6106b7565b60405161021c9190611ef8565b60405180910390f35b34801561023157600080fd5b5061024c6004803603810190610247919061189b565b6106c0565b6040516102599190611cb7565b60405180910390f35b61027c60048036038101906102779190611900565b6106f7565b6040516102899190611eb4565b60405180910390f35b34801561029e57600080fd5b506102a7610914565b6040516102b49190611eb4565b60405180910390f35b3480156102c957600080fd5b506102e460048036038101906102df91906117e7565b6109c6565b6040516102f19190611eb4565b60405180910390f35b34801561030657600080fd5b50610321600480360381019061031c919061198e565b610a0e565b60405161032e9190611eb4565b60405180910390f35b34801561034357600080fd5b5061034c610ab3565b6040516103599190611cd2565b60405180910390f35b34801561036e57600080fd5b50610377610b45565b6040516103849190611c3c565b60405180910390f35b34801561039957600080fd5b506103b460048036038101906103af9190611900565b610b6b565b6040516103c2929190611ecf565b60405180910390f35b3480156103d757600080fd5b506103f260048036038101906103ed919061189b565b610d0f565b6040516103ff9190611cb7565b60405180910390f35b34801561041457600080fd5b5061042f600480360381019061042a919061189b565b610d86565b60405161043c9190611cb7565b60405180910390f35b34801561045157600080fd5b5061046c60048036038101906104679190611810565b610da9565b6040516104799190611eb4565b60405180910390f35b34801561048e57600080fd5b506104a960048036038101906104a49190611952565b610e30565b005b60006104b5610914565b905060006104cf3434476104c99190612010565b84610a0e565b905082811015610514576040517f08c379a000000000000000000000000000000000000000000000000000000000815260040161050b90611df4565b60405180910390fd5b600560009054906101000a900473ffffffffffffffffffffffffffffffffffffffff1673ffffffffffffffffffffffffffffffffffffffff1663a9059cbb33836040518363ffffffff1660e01b8152600401610571929190611c8e565b602060405180830381600087803b15801561058b57600080fd5b505af115801561059f573d6000803e3d6000fd5b505050506040513d601f19601f820116820180604052508101906105c391906118d7565b50505050565b6060600380546105d8906120cc565b80601f0160208091040260200160405190810160405280929190818152602001828054610604906120cc565b80156106515780601f1061062657610100808354040283529160200191610651565b820191906000526020600020905b81548152906001019060200180831161063457829003601f168201915b5050505050905090565b600080610666610f8d565b9050610673818585610f95565b600191505092915050565b6000600254905090565b600080610693610f8d565b90506106a0858285611160565b6106ab8585856111ec565b60019150509392505050565b60006012905090565b6000806106cb610f8d565b90506106ec8185856106dd8589610da9565b6106e79190611f2f565b610f95565b600191505092915050565b60008060004790506000610709610914565b90506000600560009054906101000a900473ffffffffffffffffffffffffffffffffffffffff16905060008214156107dd578073ffffffffffffffffffffffffffffffffffffffff166323b872dd3330896040518463ffffffff1660e01b815260040161077893929190611c57565b602060405180830381600087803b15801561079257600080fd5b505af11580156107a6573d6000803e3d6000fd5b505050506040513d601f19601f820116820180604052508101906107ca91906118d7565b508293506107d83385611464565b610908565b600034846107eb9190612010565b905060008184346107fc9190611fb6565b6108069190611f85565b90508088101561084b576040517f08c379a000000000000000000000000000000000000000000000000000000000815260040161084290611d14565b60405180910390fd5b8273ffffffffffffffffffffffffffffffffffffffff166323b872dd3330846040518463ffffffff1660e01b815260040161088893929190611c57565b602060405180830381600087803b1580156108a257600080fd5b505af11580156108b6573d6000803e3d6000fd5b505050506040513d601f19601f820116820180604052508101906108da91906118d7565b5081346108e561067e565b6108ef9190611fb6565b6108f99190611f85565b95506109053387611464565b50505b83945050505050919050565b6000600560009054906101000a900473ffffffffffffffffffffffffffffffffffffffff1673ffffffffffffffffffffffffffffffffffffffff166370a08231306040518263ffffffff1660e01b81526004016109719190611c3c565b60206040518083038186803b15801561098957600080fd5b505afa15801561099d573d6000803e3d6000fd5b505050506040513d601f19601f820116820180604052508101906109c19190611929565b905090565b60008060008373ffffffffffffffffffffffffffffffffffffffff1673ffffffffffffffffffffffffffffffffffffffff168152602001908152602001600020549050919050565b60008083118015610a1f5750600082115b610a5e576040517f08c379a0000000000000000000000000000000000000000000000000000000008152600401610a5590611e54565b60405180910390fd5b6000606385610a6d9190611fb6565b905060008382610a7d9190611fb6565b9050600082606487610a8f9190611fb6565b610a999190611f2f565b90508082610aa79190611f85565b93505050509392505050565b606060048054610ac2906120cc565b80601f0160208091040260200160405190810160405280929190818152602001828054610aee906120cc565b8015610b3b5780601f10610b1057610100808354040283529160200191610b3b565b820191906000526020600020905b815481529060010190602001808311610b1e57829003601f168201915b5050505050905090565b600560009054906101000a900473ffffffffffffffffffffffffffffffffffffffff1681565b60008060008311610bb1576040517f08c379a0000000000000000000000000000000000000000000000000000000008152600401610ba890611db4565b60405180910390fd5b60004790506000610bc061067e565b90506000818684610bd19190611fb6565b610bdb9190611f85565b905060008287610be9610914565b610bf39190611fb6565b610bfd9190611f85565b9050610c0933886115bb565b3373ffffffffffffffffffffffffffffffffffffffff166108fc839081150290604051600060405180830381858888f19350505050158015610c4f573d6000803e3d6000fd5b50600560009054906101000a900473ffffffffffffffffffffffffffffffffffffffff1673ffffffffffffffffffffffffffffffffffffffff1663a9059cbb33836040518363ffffffff1660e01b8152600401610cad929190611c8e565b602060405180830381600087803b158015610cc757600080fd5b505af1158015610cdb573d6000803e3d6000fd5b505050506040513d601f19601f82011682018060405250810190610cff91906118d7565b5081819550955050505050915091565b600080610d1a610f8d565b90506000610d288286610da9565b905083811015610d6d576040517f08c379a0000000000000000000000000000000000000000000000000000000008152600401610d6490611e74565b60405180910390fd5b610d7a8286868403610f95565b60019250505092915050565b600080610d91610f8d565b9050610d9e8185856111ec565b600191505092915050565b6000600160008473ffffffffffffffffffffffffffffffffffffffff1673ffffffffffffffffffffffffffffffffffffffff16815260200190815260200160002060008373ffffffffffffffffffffffffffffffffffffffff1673ffffffffffffffffffffffffffffffffffffffff16815260200190815260200160002054905092915050565b6000610e3a610914565b90506000610e49848347610a0e565b905082811015610e8e576040517f08c379a0000000000000000000000000000000000000000000000000000000008152600401610e8590611df4565b60405180910390fd5b600560009054906101000a900473ffffffffffffffffffffffffffffffffffffffff1673ffffffffffffffffffffffffffffffffffffffff166323b872dd3330876040518463ffffffff1660e01b8152600401610eed93929190611c57565b602060405180830381600087803b158015610f0757600080fd5b505af1158015610f1b573d6000803e3d6000fd5b505050506040513d601f19601f82011682018060405250810190610f3f91906118d7565b503373ffffffffffffffffffffffffffffffffffffffff166108fc829081150290604051600060405180830381858888f19350505050158015610f86573d6000803e3d6000fd5b5050505050565b600033905090565b600073ffffffffffffffffffffffffffffffffffffffff168373ffffffffffffffffffffffffffffffffffffffff161415611005576040517f08c379a0000000000000000000000000000000000000000000000000000000008152600401610ffc90611e34565b60405180910390fd5b600073ffffffffffffffffffffffffffffffffffffffff168273ffffffffffffffffffffffffffffffffffffffff161415611075576040517f08c379a000000000000000000000000000000000000000000000000000000000815260040161106c90611d54565b60405180910390fd5b80600160008573ffffffffffffffffffffffffffffffffffffffff1673ffffffffffffffffffffffffffffffffffffffff16815260200190815260200160002060008473ffffffffffffffffffffffffffffffffffffffff1673ffffffffffffffffffffffffffffffffffffffff168152602001908152602001600020819055508173ffffffffffffffffffffffffffffffffffffffff168373ffffffffffffffffffffffffffffffffffffffff167f8c5be1e5ebec7d5bd14f71427d1e84f3dd0314c0f7b2291e5b200ac8c7c3b925836040516111539190611eb4565b60405180910390a3505050565b600061116c8484610da9565b90507fffffffffffffffffffffffffffffffffffffffffffffffffffffffffffffffff81146111e657818110156111d8576040517f08c379a00000000000000000000000000000000000000000000000000000000081526004016111cf90611d74565b60405180910390fd5b6111e58484848403610f95565b5b50505050565b600073ffffffffffffffffffffffffffffffffffffffff168373ffffffffffffffffffffffffffffffffffffffff16141561125c576040517f08c379a000000000000000000000000000000000000000000000000000000000815260040161125390611e14565b60405180910390fd5b600073ffffffffffffffffffffffffffffffffffffffff168273ffffffffffffffffffffffffffffffffffffffff1614156112cc576040517f08c379a00000000000000000000000000000000000000000000000000000000081526004016112c390611cf4565b60405180910390fd5b6112d7838383611789565b60008060008573ffffffffffffffffffffffffffffffffffffffff1673ffffffffffffffffffffffffffffffffffffffff1681526020019081526020016000205490508181101561135d576040517f08c379a000000000000000000000000000000000000000000000000000000000815260040161135490611d94565b60405180910390fd5b8181036000808673ffffffffffffffffffffffffffffffffffffffff1673ffffffffffffffffffffffffffffffffffffffff16815260200190815260200160002081905550816000808573ffffffffffffffffffffffffffffffffffffffff1673ffffffffffffffffffffffffffffffffffffffff168152602001908152602001600020600082825401925050819055508273ffffffffffffffffffffffffffffffffffffffff168473ffffffffffffffffffffffffffffffffffffffff167fddf252ad1be2c89b69c2b068fc378daa952ba7f163c4a11628f55a4df523b3ef8460405161144b9190611eb4565b60405180910390a361145e84848461178e565b50505050565b600073ffffffffffffffffffffffffffffffffffffffff168273ffffffffffffffffffffffffffffffffffffffff1614156114d4576040517f08c379a00000000000000000000000000000000000000000000000000000000081526004016114cb90611e94565b60405180910390fd5b6114e060008383611789565b80600260008282546114f29190611f2f565b92505081905550806000808473ffffffffffffffffffffffffffffffffffffffff1673ffffffffffffffffffffffffffffffffffffffff168152602001908152602001600020600082825401925050819055508173ffffffffffffffffffffffffffffffffffffffff16600073ffffffffffffffffffffffffffffffffffffffff167fddf252ad1be2c89b69c2b068fc378daa952ba7f163c4a11628f55a4df523b3ef836040516115a39190611eb4565b60405180910390a36115b76000838361178e565b5050565b600073ffffffffffffffffffffffffffffffffffffffff168273ffffffffffffffffffffffffffffffffffffffff16141561162b576040517f08c379a000000000000000000000000000000000000000000000000000000000815260040161162290611dd4565b60405180910390fd5b61163782600083611789565b60008060008473ffffffffffffffffffffffffffffffffffffffff1673ffffffffffffffffffffffffffffffffffffffff168152602001908152602001600020549050818110156116bd576040517f08c379a00000000000000000000000000000000000000000000000000000000081526004016116b490611d34565b60405180910390fd5b8181036000808573ffffffffffffffffffffffffffffffffffffffff1673ffffffffffffffffffffffffffffffffffffffff1681526020019081526020016000208190555081600260008282540392505081905550600073ffffffffffffffffffffffffffffffffffffffff168373ffffffffffffffffffffffffffffffffffffffff167fddf252ad1be2c89b69c2b068fc378daa952ba7f163c4a11628f55a4df523b3ef846040516117709190611eb4565b60405180910390a36117848360008461178e565b505050565b505050565b505050565b6000813590506117a281612556565b92915050565b6000815190506117b78161256d565b92915050565b6000813590506117cc81612584565b92915050565b6000815190506117e181612584565b92915050565b6000602082840312156117f957600080fd5b600061180784828501611793565b91505092915050565b6000806040838503121561182357600080fd5b600061183185828601611793565b925050602061184285828601611793565b9150509250929050565b60008060006060848603121561186157600080fd5b600061186f86828701611793565b935050602061188086828701611793565b9250506040611891868287016117bd565b9150509250925092565b600080604083850312156118ae57600080fd5b60006118bc85828601611793565b92505060206118cd858286016117bd565b9150509250929050565b6000602082840312156118e957600080fd5b60006118f7848285016117a8565b91505092915050565b60006020828403121561191257600080fd5b6000611920848285016117bd565b91505092915050565b60006020828403121561193b57600080fd5b6000611949848285016117d2565b91505092915050565b6000806040838503121561196557600080fd5b6000611973858286016117bd565b9250506020611984858286016117bd565b9150509250929050565b6000806000606084860312156119a357600080fd5b60006119b1868287016117bd565b93505060206119c2868287016117bd565b92505060406119d3868287016117bd565b9150509250925092565b6119e681612044565b82525050565b6119f581612056565b82525050565b6000611a0682611f13565b611a108185611f1e565b9350611a20818560208601612099565b611a298161218b565b840191505092915050565b6000611a41602383611f1e565b9150611a4c8261219c565b604082019050919050565b6000611a64603e83611f1e565b9150611a6f826121eb565b604082019050919050565b6000611a87602283611f1e565b9150611a928261223a565b604082019050919050565b6000611aaa602283611f1e565b9150611ab582612289565b604082019050919050565b6000611acd601d83611f1e565b9150611ad8826122d8565b602082019050919050565b6000611af0602683611f1e565b9150611afb82612301565b604082019050919050565b6000611b13602383611f1e565b9150611b1e82612350565b604082019050919050565b6000611b36602183611f1e565b9150611b418261239f565b604082019050919050565b6000611b59601a83611f1e565b9150611b64826123ee565b602082019050919050565b6000611b7c602583611f1e565b9150611b8782612417565b604082019050919050565b6000611b9f602483611f1e565b9150611baa82612466565b604082019050919050565b6000611bc2601083611f1e565b9150611bcd826124b5565b602082019050919050565b6000611be5602583611f1e565b9150611bf0826124de565b604082019050919050565b6000611c08601f83611f1e565b9150611c138261252d565b602082019050919050565b611c2781612082565b82525050565b611c368161208c565b82525050565b6000602082019050611c5160008301846119dd565b92915050565b6000606082019050611c6c60008301866119dd565b611c7960208301856119dd565b611c866040830184611c1e565b949350505050565b6000604082019050611ca360008301856119dd565b611cb06020830184611c1e565b9392505050565b6000602082019050611ccc60008301846119ec565b92915050565b60006020820190508181036000830152611cec81846119fb565b905092915050565b60006020820190508181036000830152611d0d81611a34565b9050919050565b60006020820190508181036000830152611d2d81611a57565b9050919050565b60006020820190508181036000830152611d4d81611a7a565b9050919050565b60006020820190508181036000830152611d6d81611a9d565b9050919050565b60006020820190508181036000830152611d8d81611ac0565b9050919050565b60006020820190508181036000830152611dad81611ae3565b9050919050565b60006020820190508181036000830152611dcd81611b06565b9050919050565b60006020820190508181036000830152611ded81611b29565b9050919050565b60006020820190508181036000830152611e0d81611b4c565b9050919050565b60006020820190508181036000830152611e2d81611b6f565b9050919050565b60006020820190508181036000830152611e4d81611b92565b9050919050565b60006020820190508181036000830152611e6d81611bb5565b9050919050565b60006020820190508181036000830152611e8d81611bd8565b9050919050565b60006020820190508181036000830152611ead81611bfb565b9050919050565b6000602082019050611ec96000830184611c1e565b92915050565b6000604082019050611ee46000830185611c1e565b611ef16020830184611c1e565b9392505050565b6000602082019050611f0d6000830184611c2d565b92915050565b600081519050919050565b600082825260208201905092915050565b6000611f3a82612082565b9150611f4583612082565b9250827fffffffffffffffffffffffffffffffffffffffffffffffffffffffffffffffff03821115611f7a57611f796120fe565b5b828201905092915050565b6000611f9082612082565b9150611f9b83612082565b925082611fab57611faa61212d565b5b828204905092915050565b6000611fc182612082565b9150611fcc83612082565b9250817fffffffffffffffffffffffffffffffffffffffffffffffffffffffffffffffff0483118215151615612005576120046120fe565b5b828202905092915050565b600061201b82612082565b915061202683612082565b925082821015612039576120386120fe565b5b828203905092915050565b600061204f82612062565b9050919050565b60008115159050919050565b600073ffffffffffffffffffffffffffffffffffffffff82169050919050565b6000819050919050565b600060ff82169050919050565b60005b838110156120b757808201518184015260208101905061209c565b838111156120c6576000848401525b50505050565b600060028204905060018216806120e457607f821691505b602082108114156120f8576120f761215c565b5b50919050565b7f4e487b7100000000000000000000000000000000000000000000000000000000600052601160045260246000fd5b7f4e487b7100000000000000000000000000000000000000000000000000000000600052601260045260246000fd5b7f4e487b7100000000000000000000000000000000000000000000000000000000600052602260045260246000fd5b6000601f19601f8301169050919050565b7f45524332303a207472616e7366657220746f20746865207a65726f206164647260008201527f6573730000000000000000000000000000000000000000000000000000000000602082015250565b7f416d6f756e74206f6620746f6b656e732073656e74206973206c65737320746860008201527f616e20746865206d696e696d756d20746f6b656e732072657175697265640000602082015250565b7f45524332303a206275726e20616d6f756e7420657863656564732062616c616e60008201527f6365000000000000000000000000000000000000000000000000000000000000602082015250565b7f45524332303a20617070726f766520746f20746865207a65726f20616464726560008201527f7373000000000000000000000000000000000000000000000000000000000000602082015250565b7f45524332303a20696e73756666696369656e7420616c6c6f77616e6365000000600082015250565b7f45524332303a207472616e7366657220616d6f756e742065786365656473206260008201527f616c616e63650000000000000000000000000000000000000000000000000000602082015250565b7f5f616d6f756e742073686f756c642062652067726561746572207468616e207a60008201527f65726f0000000000000000000000000000000000000000000000000000000000602082015250565b7f45524332303a206275726e2066726f6d20746865207a65726f2061646472657360008201527f7300000000000000000000000000000000000000000000000000000000000000602082015250565b7f696e73756666696369656e74206f757470757420616d6f756e74000000000000600082015250565b7f45524332303a207472616e736665722066726f6d20746865207a65726f20616460008201527f6472657373000000000000000000000000000000000000000000000000000000602082015250565b7f45524332303a20617070726f76652066726f6d20746865207a65726f2061646460008201527f7265737300000000000000000000000000000000000000000000000000000000602082015250565b7f696e76616c696420726573657276657300000000000000000000000000000000600082015250565b7f45524332303a2064656372656173656420616c6c6f77616e63652062656c6f7760008201527f207a65726f000000000000000000000000000000000000000000000000000000602082015250565b7f45524332303a206d696e7420746f20746865207a65726f206164647265737300600082015250565b61255f81612044565b811461256a57600080fd5b50565b61257681612056565b811461258157600080fd5b50565b61258d81612082565b811461259857600080fd5b5056fea264697066735822122037d87f1c961788de6999a4b2004ff57d22bb5724a3287048b5a07e9c8b2b9b8664736f6c63430008040033",
  "linkReferences": {},
  "deployedLinkReferences": {}
}